:0300000002009E5D
:0C009E00787FE4F6D8FD758109020003AC
:10001600C295E4FEC296EF339297EF25E0FFD296A3
:100026000EBE08F0E4FEC296ED339297ED25E0FD94
:08003600D2960EBE08F0D2952F
:01003E00229F
:100065007D017F0C120016E4FD7F0F1200167D0F37
:100075007F091200167D027F0B1200167D047F0A90
:0300850002001660
:10003F00E4FDFCC3ED9FEE6480F8EC6480985015EE
:10004F00E4FBFA0BBB00010AEB64054A70F50DBD2A
:05005F0000010C80DE31
:010064002279
:0300130002008860
:10008800C0E0C2AAE5087006C29205088005D292AF
:06009800750800D0E03203
:0A00AA00758901D2AAC28AD2AF22E2
:0D000300E4F5081200AA30B3FDD2AA80F97E
:00000001FF
