:0300000002019C5E
:0C019C00787FE4F6D8FD75810C02018A22
:1000EA00C295E4FEC296EF339297EF25E0FFD296CF
:1000FA000EBE08F0E4FEC296ED339297ED25E0FDC0
:08010A00D2960EBE08F0D2955A
:0101120022CA
:100139007D017F0C1200EAE4FD7F0F1200EA7D0FBA
:100149007F091200EA7D027F0B1200EA7D047F0A13
:030159000200EAB7
:10011300E4FDFCC3ED9FEE6480F8EC648098501519
:10012300E4FBFA0BBB00010AEB64054A70F50DBD55
:0501330000010C80DE5C
:0101380022A4
:03000B0002015C93
:10015C00C0E0C28C758C3C758AB0050CE50C700245
:07016C00050BD28CD0E0323C
:03001300020016D2
:10001600C0E0C0F0C083C082C0D075D000C000C0B0
:1000260001C002C003C004C005C006C007C2AAE5DD
:10003600087006D28C05088041C28C750800AE0B8C
:10004600AF0CEE3395E0FDFCE47B507AC3F9F81271
:10005600009BAD07AC06AF8CEFFEAB8A7A00E42BB3
:10006600FFEA3EFEC374509FCF74C39ECF2DF50AA0
:10007600EF3CF509750B00750C00D007D006D005CE
:10008600D004D003D002D001D000D0D0D082D0830B
:05009600D0F0D0E032C3
:10017300758901758C3C758AB075B806D2A9C28C95
:07018300D2AAC28AD2AF220A
:10018A001201397C01AF047D861200EA0CBC04F529
:02019A0080F1F2
:10009B00E88FF0A4CC8BF0A42CFCE98EF0A42CFC04
:1000AB008AF0EDA42CFCEA8EF0A4CDA8F08BF0A482
:1000BB002DCC3825F0FDE98FF0A42CCD35F0FCEBE1
:1000CB008EF0A4FEA9F0EB8FF0A4CFC5F02ECD39A6
:0F00DB00FEE43CFCEAA42DCE35F0FDE43CFC2213
:00000001FF
