:03000000020006F5
:0C000600787FE4F6D8FD75811102003F00
:10001600C295E4FEC296EF339297EF25E0FFD296A3
:100026000EBE08F0E4FEC296ED339297ED25E0FD94
:08003600D2960EBE08F0D2952F
:01003E00229F
:10008E007D017F0C120016E4FD7F0F1200167D0F0E
:10009E007F091200167D027F0B1200167D047F0A67
:0300AE0002001637
:10006800E4FDFCC3ED9FEE6480F8EC6480985015C5
:10007800E4FBFA0BBB00010AEB64054A70F50DBD01
:0500880000010C80DE08
:01008D002250
:030003000200B147
:1000B100C0E0C2A8E50C600DD292750C000511E5F7
:0800C1001170020510D0E032BD
:030013000200C91F
:0F00C900C0E0C2AAE50C7004C292050CD0E03270
:0A00D800758901D2AAC28AD2AF22B4
:10003F00E4F50AF50BF508F509F50EF50FF510F5D2
:10004F0011F50C1200D830B302D2AA30B2F8E50C79
:09005F0060F4D292E4F50C80ED8E
:00000001FF
